:1000000000308A009A2900000A108A100A1182071B
:1000100028340C34013406340A108A100A1182077D
:100020005034493443343134363446343834373438
:100030003734413400340A108A100A1182074C34D4
:100040004334443420346534783461346D3470344E
:100050006C34653400340A108A100A11820748345F
:1000600065346C346C346F34203477346F347234CC
:100070006C346434213400340A108A100A11820767
:1000800048346134763465342034613420346E343D
:100090006934633465342034643461347934003431
:1000A0002330840083130008031964280130F8000A
:1000B000F701F70B5928F80B58284A30F700F70BCF
:1000C0005F286228800B562800342A1869280812F5
:1000D0006A280816831608128312AA187128881233
:1000E000722888168316881283122A197928081311
:1000F0007A280817831608138312AA1981288813EF
:100100008228881783168813000083120815831627
:1001100008118A28831208118316081183120034EB
:10012000AB018316081600308312081A0130AB04A5
:100130008316881600308312881A0130F7000310E6
:10014000F70D7708AB048316081700308312081BDD
:100150000130F700F70DF70DFC30F7057708AB0419
:100160008316881700308312881B0130F700F70DC3
:10017000F70DF70DF830F7057708AB042B08F800FA
:1001800000340810831608100816881608178817F8
:1001900083128814831688100000831208158316B2
:1001A00008110000831290207808AA000811831615
:1001B000081100008312081583160811000083122D
:1001C00090207808A90008118316081108128812D7
:1001D0000813881383122A0EF700F030F70577080A
:1001E0002904F8007808A900A91FF8288316C42854
:1001F000A708031DFD280810FE2808148316081000
:1002000000008312881083168810000083120811E2
:10021000831608118312280EA9000F30A90529089A
:10022000AA00652028080F39A900AA00652000341B
:1002300083160812881208138813081108108810F2
:1002400083120810831608108312881083168810F2
:1002500083120811831608110F308312A300502057
:100260000130A1002108033C031C3E290330AA00F1
:1002700065200530A3005020A10A32290230AA00CF
:100280006520A1012108033C031C4F2921080420FB
:10029000A200A7012208A800C120A10A42298A11B0
:1002A0000A12AF29240B5629A5016A292408023C09
:1002B000031D5D294030A5006A292408033C031D65
:1002C00064291430A5006A292408043C031D6A2906
:1002D0005430A50001302302A50725088038A60068
:1002E000A7012608A800C120003422080C3A0319EF
:1002F0008029063A03198829023A03198E2993297D
:10030000A7010130A800C1200230A3005020992984
:100310000130A3000230A40052219929A701103016
:10032000A800C12099290130A7002208A800C120F7
:1003300099290034840183131F3083058316031722
:100340000908C039890003131F129F1200300317D8
:1003500088008312870188018901031318290C3052
:10036000A20075210430A3000130A4005221A10194
:1003700021080C2000380319C129A10AA200752107
:10038000B8290430A3000230A4005221A1012108A1
:100390001B2000380319D029A10AA2007521C72902
:1003A0001430A100FA30A3005020A10BD2290C3048
:1003B000A20075210330A3000130A4005221A10145
:1003C00021082B2000380319E929A10AA200752170
:1003D000E0290230A300A4005221A10121083C2001
:1003E00000380319F729A10AA2007521EE2914305B
:1003F000A100FA30A3005020A10BF9290C30A20073
:1004000075210330A3000130A4005221A10121086D
:100410002B2000380319102AA10AA2007521072AEF
:04042000AF2963009D
:04400E00E72FFF3F5A
:00000001FF
;PIC16F887
