:1000000000308A0047280000FF00030E8301A10092
:100010000A08A0008A010408A2007708A300780853
:10002000A4007908A5007A08A6007B08A70083131E
:1000300083120B1E1D288B183028220884002308E9
:10004000F7002408F8002508F9002608FA00270818
:10005000FB0020088A00210E8300FF0E7F0E09009E
:100060008A110A1247282C308400831300080319D0
:1000700046280630F800F701F70B3C28F80B3B2820
:100080007B30F700F70B4228800B392800348401BD
:1000900083131F3083058316031787150830031356
:1000A000990002309A00A630980090308312980090
:1000B000831603170908C039890003131F129F1202
:1000C00000300317880083128701880189010F30EF
:1000D00083160313860083120617C830AC00332042
:1000E0000613C830AC003320061D7F2880308606FA
:1000F0001430AB00FA30AC003320AB0B7A286C28FC
:0201000063009A
:04400E00F73FFF3F3A
:00000001FF
;PIC16F887
