:1000000000308A00332900000A108A100A11820782
:1000100028340C34013406340A108A100A1182077D
:100020005034683461346D342034483461342034C1
:100030004E3461346D3400340A108A100A1182077C
:100040003134383430343734313435343334323475
:100050000034233084008313000803193D28013045
:10006000F800F701F70B3228F80B31284A30F70077
:10007000F70B38283B28800B2F2800342A184228F9
:10008000081243280816AA184728881248288816F4
:100090002A194C2808134D280817AA195128881323
:1000A0005228881700000815552808110034AB01A4
:1000B0000030081A0130AB040030881A0130F70014
:1000C0000310F70D7708AB040030081B0130F70070
:1000D000F70DF70DFC30F7057708AB040030881BEF
:1000E0000130F700F70DF70DF70DF830F705770839
:1000F000AB042B08F8000034081083160816881685
:10010000081788178312881400000815000057206C
:100110007808AA0008110000081500005720780888
:10012000A900081183160812881208138813831275
:100130002A0EF700F030F70577082904F800780850
:10014000A900A91B7D28A708031DA8280810A92815
:1001500008140000881000000811280EA9000F30B4
:10016000A9052908AA003E2028080F39A900AA00DD
:100170003E200034831608128812081388130811D1
:100180000810881083120810881008110F30A3007F
:1001900029200130A1002108033C031CD72803308B
:1001A000AA003E200530A3002920A10ACB28023056
:1001B000AA003E20A1012108033C031CE8282108D5
:1001C0000420A200A7012208A8007C20A10ADB28A5
:1001D0008A110A125B29240BEF28A50103292408A0
:1001E000023C031DF6284030A50003292408033CE7
:1001F000031DFD281430A50003292408043C031D19
:1002000003295430A50001302302A50725088038B2
:10021000A600A7012608A8007C20003422080C3A7A
:1002200003191929063A03192129023A0319272922
:100230002C29A7010130A8007C200230A30029202E
:1002400032290130A3000230A400EB203229A7019B
:100250001030A8007C2032290130A7002208A80015
:100260007C2032290034840183131F3083058316D8
:10027000031787110C3003139900E2309800D03037
:1002800083129800831603170908C03989000313E5
:100290001F129F1200300317880083128701880104
:1002A000890100308316031386008800FF30850023
:1002B00083128601BA280230A3000130A400EB208B
:1002C000A10121080C20A10AF700A2000E210B3089
:1002D0002102031D61290230A300A400EB20A1012B
:1002E00021081C20A10AF700A2000E2108302102DB
:0602F000031D70296300EC
:04400E00F22CFF3F52
:00000001FF
;PIC16F887
