:1000000000308A00602800002E308400831300082E
:10001000031917280630F800F701F70B0D28F80B25
:100020000C287B30F700F70B1328800B0A280034CC
:100030002C102C088316870083120710AB012B08A5
:10004000073C031C44282E088039031D2E28AC10C1
:100050002C0883168700831287103428AC102C08D4
:1000600083168700831287140310AE0D2C102C0802
:1000700083168700831207142C102C088316870020
:1000800083120710AB0A1F288A110A12EA282C10C3
:100090002C0883168700831207100830F700F70B2F
:1000A0004F282C112C0883168700831207152C115A
:1000B0002C0883168700831207118A110A12EB2875
:1000C000840183131F3083058316031787150830B7
:1000D0000313990002309A00A630980090308312E2
:1000E0009800831603170908C039890003131F12EB
:1000F0009F1200300317880083128701880189014D
:100100003F300313A0000630A1005B30A2004F3047
:10011000A3006630A4006D30A5007D30A600073036
:10012000A7007F30A8006F30A900FF30AC0000307E
:100130008316860087008312AC0083168800860130
:100140008312860183168801831288018316881121
:10015000831288150430AD00FA30AE000420AD0BD8
:10016000AC2883168811831288110430AD00FA3050
:10017000AE000420AD0BB7283230AE000420AA0137
:100180002A08093C031CD92820302A07840083133D
:100190000008FF3AAD008316860183122D08860001
:1001A0000230AD00FA30AE000420AD0BD228AA0A0E
:1001B000C0283230AE000420AA012A08093C031CE2
:1001C000F42820302A07840083130008FF3AAD008A
:1001D000AE00182847280230AD00FA30AE000420E7
:0C01E000AD0BED28AA0ADD28A62863005C
:04400E00F73FFF3F3A
:00000001FF
;PIC16F887
